{
  "contractName": "reunionVerificacion",
  "abi": [
    {
      "constant": false,
      "inputs": [
        {
          "name": "id",
          "type": "uint256"
        },
        {
          "name": "tema",
          "type": "string"
        },
        {
          "name": "fecha",
          "type": "string"
        }
      ],
      "name": "nuevaReunion",
      "outputs": [],
      "payable": false,
      "stateMutability": "nonpayable",
      "type": "function"
    },
    {
      "constant": true,
      "inputs": [
        {
          "name": "id",
          "type": "uint256"
        }
      ],
      "name": "consultarReunion",
      "outputs": [
        {
          "name": "",
          "type": "uint256"
        },
        {
          "name": "",
          "type": "string"
        },
        {
          "name": "",
          "type": "string"
        }
      ],
      "payable": false,
      "stateMutability": "view",
      "type": "function"
    },
    {
      "constant": false,
      "inputs": [
        {
          "name": "id",
          "type": "uint256"
        },
        {
          "name": "idFoto",
          "type": "uint256"
        },
        {
          "name": "direccion",
          "type": "string"
        },
        {
          "name": "hash",
          "type": "string"
        }
      ],
      "name": "nuevaFoto",
      "outputs": [
        {
          "name": "",
          "type": "uint256"
        },
        {
          "name": "",
          "type": "uint256"
        },
        {
          "name": "",
          "type": "string"
        },
        {
          "name": "",
          "type": "string"
        }
      ],
      "payable": false,
      "stateMutability": "nonpayable",
      "type": "function"
    },
    {
      "constant": true,
      "inputs": [
        {
          "name": "id",
          "type": "uint256"
        },
        {
          "name": "pos",
          "type": "uint256"
        }
      ],
      "name": "consultarFoto",
      "outputs": [
        {
          "name": "",
          "type": "string"
        },
        {
          "name": "",
          "type": "string"
        }
      ],
      "payable": false,
      "stateMutability": "view",
      "type": "function"
    }
  ],
  "bytecode": "0x608060405234801561001057600080fd5b50610c14806100206000396000f3fe608060405234801561001057600080fd5b506004361061004c5760003560e01c80635a257e87146100515780639b98a721146102aa5780639fadb601146103c4578063ded93d9a146104e1575b600080fd5b6101b56004803603608081101561006757600080fd5b8101908080359060200190929190803590602001909291908035906020019064010000000081111561009857600080fd5b8201836020820111156100aa57600080fd5b803590602001918460018302840111640100000000831117156100cc57600080fd5b91908080601f016020809104026020016040519081016040528093929190818152602001838380828437600081840152601f19601f8201169050808301925050505050505091929192908035906020019064010000000081111561012f57600080fd5b82018360208201111561014157600080fd5b8035906020019184600183028401116401000000008311171561016357600080fd5b91908080601f016020809104026020016040519081016040528093929190818152602001838380828437600081840152601f19601f82011690508083019250505050505050919291929050505061063d565b604051808581526020018481526020018060200180602001838103835285818151815260200191508051906020019080838360005b838110156102055780820151818401526020810190506101ea565b50505050905090810190601f1680156102325780820380516001836020036101000a031916815260200191505b50838103825284818151815260200191508051906020019080838360005b8381101561026b578082015181840152602081019050610250565b50505050905090810190601f1680156102985780820380516001836020036101000a031916815260200191505b50965050505050505060405180910390f35b6102d6600480360360208110156102c057600080fd5b81019080803590602001909291905050506106f0565b604051808481526020018060200180602001838103835285818151815260200191508051906020019080838360005b83811015610320578082015181840152602081019050610305565b50505050905090810190601f16801561034d5780820380516001836020036101000a031916815260200191505b50838103825284818151815260200191508051906020019080838360005b8381101561038657808201518184015260208101905061036b565b50505050905090810190601f1680156103b35780820380516001836020036101000a031916815260200191505b509550505050505060405180910390f35b6103fa600480360360408110156103da57600080fd5b81019080803590602001909291908035906020019092919050505061087a565b604051808060200180602001838103835285818151815260200191508051906020019080838360005b8381101561043e578082015181840152602081019050610423565b50505050905090810190601f16801561046b5780820380516001836020036101000a031916815260200191505b50838103825284818151815260200191508051906020019080838360005b838110156104a4578082015181840152602081019050610489565b50505050905090810190601f1680156104d15780820380516001836020036101000a031916815260200191505b5094505050505060405180910390f35b61063b600480360360608110156104f757600080fd5b81019080803590602001909291908035906020019064010000000081111561051e57600080fd5b82018360208201111561053057600080fd5b8035906020019184600183028401116401000000008311171561055257600080fd5b91908080601f016020809104026020016040519081016040528093929190818152602001838380828437600081840152601f19601f820116905080830192505050505050509192919290803590602001906401000000008111156105b557600080fd5b8201836020820111156105c757600080fd5b803590602001918460018302840111640100000000831117156105e957600080fd5b91908080601f016020809104026020016040519081016040528093929190818152602001838380828437600081840152601f19601f820116905080830192505050505050509192919290505050610a22565b005b600080606080600080898152602001908152602001600020600401604051806060016040528089815260200188815260200187815250908060018154018082558091505090600182039060005260206000209060030201600090919290919091506000820151816000015560208201518160010190805190602001906106c4929190610ac3565b5060408201518160020190805190602001906106e1929190610ac3565b50505050945094509450949050565b600060608060008085815260200190815260200160002060000154600080868152602001908152602001600020600201600080878152602001908152602001600020600101818054600181600116156101000203166002900480601f0160208091040260200160405190810160405280929190818152602001828054600181600116156101000203166002900480156107ca5780601f1061079f576101008083540402835291602001916107ca565b820191906000526020600020905b8154815290600101906020018083116107ad57829003601f168201915b50505050509150808054600181600116156101000203166002900480601f0160208091040260200160405190810160405280929190818152602001828054600181600116156101000203166002900480156108665780601f1061083b57610100808354040283529160200191610866565b820191906000526020600020905b81548152906001019060200180831161084957829003601f168201915b505050505090509250925092509193909250565b606080600080858152602001908152602001600020600401838154811061089d57fe5b906000526020600020906003020160010160008086815260200190815260200160002060040184815481106108ce57fe5b9060005260206000209060030201600201818054600181600116156101000203166002900480601f0160208091040260200160405190810160405280929190818152602001828054600181600116156101000203166002900480156109745780601f1061094957610100808354040283529160200191610974565b820191906000526020600020905b81548152906001019060200180831161095757829003601f168201915b50505050509150808054600181600116156101000203166002900480601f016020809104026020016040519081016040528092919081815260200182805460018160011615610100020316600290048015610a105780601f106109e557610100808354040283529160200191610a10565b820191906000526020600020905b8154815290600101906020018083116109f357829003601f168201915b50505050509050915091509250929050565b600160008085815260200190815260200160002060030160006101000a81548160ff0219169083151502179055508260008085815260200190815260200160002060000181905550806000808581526020019081526020016000206002019080519060200190610a93929190610b43565b50816000808581526020019081526020016000206001019080519060200190610abd929190610b43565b50505050565b828054600181600116156101000203166002900490600052602060002090601f016020900481019282601f10610b0457805160ff1916838001178555610b32565b82800160010185558215610b32579182015b82811115610b31578251825591602001919060010190610b16565b5b509050610b3f9190610bc3565b5090565b828054600181600116156101000203166002900490600052602060002090601f016020900481019282601f10610b8457805160ff1916838001178555610bb2565b82800160010185558215610bb2579182015b82811115610bb1578251825591602001919060010190610b96565b5b509050610bbf9190610bc3565b5090565b610be591905b80821115610be1576000816000905550600101610bc9565b5090565b9056fea165627a7a723058201095ac98d0f8a7ce523d71f43fdb1ed3d5d87dc89c6e9d55dbd97f4459462d210029",
  "source": "pragma solidity ^0.5.0;\r\n\r\n// Declaracion del contrato\r\n\r\ncontract reunionVerificacion {\r\n    \r\n    // Para la foto\r\n    struct Foto {\r\n        uint id;\r\n        string direccion;\r\n        string hash;\r\n    }\r\n    // Para la reunion\r\n    struct Reunion{\r\n        uint id;\r\n        string tema;\r\n        string fecha;\r\n        bool creado;\r\n        Foto [] dato;\r\n    }\r\n// Iniciando el mapping\r\n    mapping (uint => Reunion) reunion;\r\n// Para el registro de la Reunion\r\n    function nuevaReunion (uint id, string memory tema, string memory fecha) public {\r\n        reunion[id].creado = true;\r\n        reunion[id].id = id;\r\n        reunion[id].fecha = fecha;\r\n        reunion[id].tema = tema;\r\n    }\r\n// Para consultar la reunion\r\n    function consultarReunion (uint id) public view returns (uint, string memory,string memory){\r\n        return (reunion[id].id, reunion[id].fecha, reunion[id].tema);\r\n    }\r\n    \r\n// Para el registro de la foto \r\n    function nuevaFoto(uint id, uint idFoto, string memory direccion, string memory hash) public returns (uint, uint , string memory, string memory){\r\n        reunion[id].dato.push(Foto({\r\n            id : idFoto,\r\n            direccion : direccion,\r\n            hash : hash \r\n        }));\r\n    }\r\n// Para consultar la foto \r\n    function consultarFoto (uint id, uint pos) public view returns (string memory, string memory){\r\n        return (reunion[id].dato[pos].direccion, reunion[id].dato[pos].hash);\r\n    }\r\n}",
  "sourcePath": "C:/Users/Usuario/Desktop/ContratoReunion/contracts/reunionVerificacion.sol",
  "compiler": {
    "name": "solc",
    "version": "0.5.8+commit.23d335f2.Emscripten.clang"
  },
  "schemaVersion": "3.0.12",
  "updatedAt": "2019-08-16T13:58:04.607Z",
  "devdoc": {
    "methods": {}
  },
  "userdoc": {
    "methods": {}
  }
}